:04000000CCEF1FF032
:103F9800066A0001D7EF1FF0000E946E000E7E6EC9
:103FA800000E7F6E1200D0EC1FF00650FF0A826EE2
:103FB800062A000E026E000E036E000E046E000E3E
:103FC800056E100E025C000E0358000E0458000E19
:103FD8000558D8B0EAD7FE0E016E3D0EE82EFED782
:103FE800012EFCD700D0010E0226000E0322000E7F
:083FF8000422000E0522E5D7AA
:020000040020DA
:08000000FFFFFFFFFFFFFFFF00
:020000040030CA
:0E0000000032191EFF0081FF03C003E0034021
:00000001FF
