:020000040000FA
:06000000C8EF00F0120041
:020006000000F8
:0600080013EF00F01200EE
:02000E00F19E61
:10001000F290F286C00E7A6EF28E946A7E6A7F6AE1
:1000200000016A6B1200DACFE4FFE2CFDAFFF3CF10
:10003000E4FFF4CFE4FFE652D9CFE6FFE1CFD9FFEA
:10004000E652F2A01ED0F290060E81CFE7FF070B1A
:1000500004E0E742E79EE806FCE1E750030BDF6EB1
:1000600000016B51040DF350DF246B6F0F0E6B1703
:100070006B51070A04E00A0A04E1010E01D0020EE6
:100080006A6FE552E552E7CFD9FFE552E5CFF4FFBD
:10009000E5CFF3FFE5CFDAFF1100D9CFE6FFE1CFDF
:1000A000D9FFE652DF6AB3DF00016A51FDE06A055D
:1000B00005E10F0EDF5C02E2DF2A07D0020E6A5D67
:1000C00004E1DF50000801E2DF06DF1C826E6A6B8C
:0200D000EBD76C
:0E00D200060EF66E000EF76E000EF86E0001C0
:1000E0000900F550656F0900F550666F03E165671B
:1000F00001D03DD00900F550606F0900F550616FE7
:100100000900F550626F09000900F550E96E090019
:10011000F550EA6E090009000900F550636F090007
:10012000F550646F09000900F6CF67F0F7CF68F06B
:10013000F8CF69F060C0F6FF61C0F7FF62C0F8FF5A
:100140000001635302E1645307E00900F550EE6ECD
:100150006307F8E26407F9D767C0F6FF68C0F7FFE6
:1001600069C0F8FF00016507000E665BBFD712008B
:10017000000EF36E00EE00F0030E01D81200EA60EC
:1001800002D0EE6AFCD7F350E9601200EE6AFCD7A9
:1001900011EE00F021EE00F0F86A019C69EC00F02D
:0C01A000D6EC00F04DEC00F0FBD7120094
:0201AC0012003F
:020000040030CA
:0100000000FF
:0100010032CC
:0100020019E4
:010003001EDE
:0100050000FA
:010006008178
:0100080003F4
:01000900C036
:01000A0003F2
:01000B00E014
:01000C0003F0
:01000D0040B2
:00000001FF
