:04000000CDEF1FF031
:103F9A00066A0001D8EF1FF0000E946E000E7E6EC6
:103FAA00000E7F6E1200D1EC1FF006C082FF062AB7
:103FBA00000E026E000E036E000E046E000E056EF9
:103FCA00100E025C000E0358000E0458000E05582D
:103FDA00D8B0EBD7FE0E016E3D0EE82EFED7012EAD
:103FEA00FCD700D0010E0226000E0322000E042286
:063FFA00000E0522E5D7D0
:020000040020DA
:08000000FFFFFFFFFFFFFFFF00
:020000040030CA
:0E0000000032191EFF0081FF03C003E0034021
:00000001FF
