:0400000064EF00F0B9
:10000800FACF02F0FBCF03F0E9CF04F0EACF05F016
:10001800E1CF06F0E2CF07F0D9CF08F0DACF09F048
:10002800F3CF0AF0F4CF0BF0F6CF0CF0F7CF0DF0CA
:10003800F8CF0EF0F5CF0FF0F2B001D001D002D01A
:1000480022D021D0F2908144E846030B030B106EB6
:100058001544E846FC0B1024156E0F0E15160BD030
:10006800016E010E146E01500ED0016E020E146E58
:10007800015009D008D01550070AD8B4F6D70A0A93
:10008800D8B4EED700D00FC0F5FF0EC0F8FF0DC0F2
:10009800F7FF0CC0F6FF0BC0F4FF0AC0F3FF09C05E
:1000A800DAFF08C0D9FF07C0E2FF06C0E1FF05C0BC
:1000B800EAFF04C0E9FF03C0FBFF02C0FAFF11001A
:1000C80095EF00F084EC00F0000E136E146601D07A
:1000D800FDD71404D8A405D00F0E136002D0132A3C
:1000E80007D01450020AD8A403D01350D8A413067A
:1000F8001350FF0A826E126E000E146E1250E6D76D
:10010800F19EF290F286C00E7A6EF28E000E946E18
:10011800000E7E6E000E7F6E116E000E146E115072
:100128001200156A146A000EF86E000166EF00F0FE
:020000040020DA
:08000000FFFFFFFFFFFFFFFF00
:020000040030CA
:0E0000000032181EFF0081FF0080008000000B
:00000001FF
